{
  "_format": "hh-sol-artifact-1",
  "contractName": "Donations",
  "sourceName": "contracts/Donations.sol",
  "abi": [
    {
      "inputs": [],
      "stateMutability": "nonpayable",
      "type": "constructor"
    },
    {
      "anonymous": false,
      "inputs": [
        {
          "indexed": true,
          "internalType": "address",
          "name": "account",
          "type": "address"
        },
        {
          "indexed": true,
          "internalType": "enum User.Type",
          "name": "userType",
          "type": "uint8"
        }
      ],
      "name": "RegisteredUser",
      "type": "event"
    },
    {
      "anonymous": false,
      "inputs": [
        {
          "indexed": true,
          "internalType": "address",
          "name": "donor",
          "type": "address"
        },
        {
          "indexed": true,
          "internalType": "address",
          "name": "donee",
          "type": "address"
        },
        {
          "indexed": true,
          "internalType": "uint256",
          "name": "tId",
          "type": "uint256"
        },
        {
          "indexed": false,
          "internalType": "uint256",
          "name": "amount",
          "type": "uint256"
        }
      ],
      "name": "aidOfferTransaction",
      "type": "event"
    },
    {
      "anonymous": false,
      "inputs": [
        {
          "indexed": true,
          "internalType": "address",
          "name": "donor",
          "type": "address"
        },
        {
          "indexed": true,
          "internalType": "address",
          "name": "donee",
          "type": "address"
        },
        {
          "indexed": true,
          "internalType": "uint256",
          "name": "tId",
          "type": "uint256"
        },
        {
          "indexed": false,
          "internalType": "uint256",
          "name": "amount",
          "type": "uint256"
        }
      ],
      "name": "aidRequestTransaction",
      "type": "event"
    },
    {
      "inputs": [
        {
          "internalType": "uint256",
          "name": "_tId",
          "type": "uint256"
        },
        {
          "internalType": "address payable",
          "name": "_donee",
          "type": "address"
        }
      ],
      "name": "AidRequestReecieved",
      "outputs": [
        {
          "internalType": "uint256",
          "name": "",
          "type": "uint256"
        }
      ],
      "stateMutability": "payable",
      "type": "function"
    },
    {
      "inputs": [
        {
          "internalType": "uint256",
          "name": "_tId",
          "type": "uint256"
        },
        {
          "internalType": "address payable",
          "name": "_donee",
          "type": "address"
        }
      ],
      "name": "DonorOfferSend",
      "outputs": [
        {
          "internalType": "uint256",
          "name": "",
          "type": "uint256"
        }
      ],
      "stateMutability": "payable",
      "type": "function"
    },
    {
      "inputs": [
        {
          "internalType": "uint256",
          "name": "",
          "type": "uint256"
        }
      ],
      "name": "aidFundCollected",
      "outputs": [
        {
          "internalType": "uint256",
          "name": "",
          "type": "uint256"
        }
      ],
      "stateMutability": "view",
      "type": "function"
    },
    {
      "inputs": [],
      "name": "contractOwner",
      "outputs": [
        {
          "internalType": "address",
          "name": "",
          "type": "address"
        }
      ],
      "stateMutability": "view",
      "type": "function"
    },
    {
      "inputs": [],
      "name": "doneeCount",
      "outputs": [
        {
          "internalType": "uint256",
          "name": "",
          "type": "uint256"
        }
      ],
      "stateMutability": "view",
      "type": "function"
    },
    {
      "inputs": [],
      "name": "donorCount",
      "outputs": [
        {
          "internalType": "uint256",
          "name": "",
          "type": "uint256"
        }
      ],
      "stateMutability": "view",
      "type": "function"
    },
    {
      "inputs": [
        {
          "internalType": "enum User.Type",
          "name": "_userType",
          "type": "uint8"
        }
      ],
      "name": "registerUser",
      "outputs": [],
      "stateMutability": "nonpayable",
      "type": "function"
    },
    {
      "inputs": [],
      "name": "userCount",
      "outputs": [
        {
          "internalType": "uint256",
          "name": "",
          "type": "uint256"
        }
      ],
      "stateMutability": "view",
      "type": "function"
    },
    {
      "inputs": [
        {
          "internalType": "address",
          "name": "",
          "type": "address"
        }
      ],
      "name": "users",
      "outputs": [
        {
          "internalType": "enum User.Type",
          "name": "userType",
          "type": "uint8"
        },
        {
          "internalType": "bool",
          "name": "valid",
          "type": "bool"
        }
      ],
      "stateMutability": "view",
      "type": "function"
    }
  ],
  "bytecode": "0x608060405234801561001057600080fd5b50600080819055506000600181905550600060028190555033600460006101000a81548173ffffffffffffffffffffffffffffffffffffffff021916908373ffffffffffffffffffffffffffffffffffffffff160217905550611374806100786000396000f3fe6080604052600436106100865760003560e01c8063a87430ba11610059578063a87430ba1461014c578063c407670f1461018a578063ce606ee0146101b5578063d3690204146101e0578063d96e13dc1461021057610086565b806302b8c8cd1461008b57806307973ccf146100b45780632a60441d146100df578063a1e765b41461010f575b600080fd5b34801561009757600080fd5b506100b260048036038101906100ad9190610c7a565b61023b565b005b3480156100c057600080fd5b506100c9610526565b6040516100d69190610cc0565b60405180910390f35b6100f960048036038101906100f49190610d65565b61052c565b6040516101069190610cc0565b60405180910390f35b34801561011b57600080fd5b5061013660048036038101906101319190610da5565b61087a565b6040516101439190610cc0565b60405180910390f35b34801561015857600080fd5b50610173600480360381019061016e9190610e10565b610892565b604051610181929190610ecf565b60405180910390f35b34801561019657600080fd5b5061019f6108d0565b6040516101ac9190610cc0565b60405180910390f35b3480156101c157600080fd5b506101ca6108d6565b6040516101d79190610f07565b60405180910390f35b6101fa60048036038101906101f59190610d65565b6108fc565b6040516102079190610cc0565b60405180910390f35b34801561021c57600080fd5b50610225610c4a565b6040516102329190610cc0565b60405180910390f35b60001515600360003373ffffffffffffffffffffffffffffffffffffffff1673ffffffffffffffffffffffffffffffffffffffff16815260200190815260200160002060000160019054906101000a900460ff161515146102d1576040517f08c379a00000000000000000000000000000000000000000000000000000000081526004016102c890610f7f565b60405180910390fd5b600060018111156102e5576102e4610e3d565b5b8160018111156102f8576102f7610e3d565b5b1480610327575060018081111561031257610311610e3d565b5b81600181111561032557610324610e3d565b5b145b610366576040517f08c379a000000000000000000000000000000000000000000000000000000000815260040161035d90610feb565b60405180910390fd5b6000808154809291906103789061103a565b91905055506000604051806040016040528083600181111561039d5761039c610e3d565b5b815260200160011515815250905080600360003373ffffffffffffffffffffffffffffffffffffffff1673ffffffffffffffffffffffffffffffffffffffff16815260200190815260200160002060008201518160000160006101000a81548160ff0219169083600181111561041657610415610e3d565b5b021790555060208201518160000160016101000a81548160ff02191690831515021790555090505081600181111561045157610450610e3d565b5b3373ffffffffffffffffffffffffffffffffffffffff167f74c84af6c24f9ad9f8ce4f8958227e495adc658383234a4209014b925ad0083260405160405180910390a3600060018111156104a8576104a7610e3d565b5b8260018111156104bb576104ba610e3d565b5b036104dd57600160008154809291906104d39061103a565b9190505550610522565b6001808111156104f0576104ef610e3d565b5b82600181111561050357610502610e3d565b5b03610521576002600081548092919061051b9061103a565b91905055505b5b5050565b60005481565b600060018081111561054157610540610e3d565b5b600360003373ffffffffffffffffffffffffffffffffffffffff1673ffffffffffffffffffffffffffffffffffffffff16815260200190815260200160002060000160009054906101000a900460ff1660018111156105a3576105a2610e3d565b5b146105e3576040517f08c379a00000000000000000000000000000000000000000000000000000000081526004016105da906110ce565b60405180910390fd5b81600060018111156105f8576105f7610e3d565b5b600360008373ffffffffffffffffffffffffffffffffffffffff1673ffffffffffffffffffffffffffffffffffffffff16815260200190815260200160002060000160009054906101000a900460ff16600181111561065a57610659610e3d565b5b1461069a576040517f08c379a00000000000000000000000000000000000000000000000000000000081526004016106919061113a565b60405180910390fd5b600034116106dd576040517f08c379a00000000000000000000000000000000000000000000000000000000081526004016106d4906111cc565b60405180910390fd5b60008411610720576040517f08c379a000000000000000000000000000000000000000000000000000000000815260040161071790611238565b60405180910390fd5b60008373ffffffffffffffffffffffffffffffffffffffff163460405161074690611289565b60006040518083038185875af1925050503d8060008114610783576040519150601f19603f3d011682016040523d82523d6000602084013e610788565b606091505b50509050806107cc576040517f08c379a00000000000000000000000000000000000000000000000000000000081526004016107c3906112ea565b60405180910390fd5b346005600087815260200190815260200160002060008282546107ef919061130a565b92505081905550848473ffffffffffffffffffffffffffffffffffffffff163373ffffffffffffffffffffffffffffffffffffffff167f315f7c0d15c624071a006401820a6c0780491b692563589d75755ffb29be3701346040516108549190610cc0565b60405180910390a460056000868152602001908152602001600020549250505092915050565b60056020528060005260406000206000915090505481565b60036020528060005260406000206000915090508060000160009054906101000a900460ff16908060000160019054906101000a900460ff16905082565b60025481565b600460009054906101000a900473ffffffffffffffffffffffffffffffffffffffff1681565b600060018081111561091157610910610e3d565b5b600360003373ffffffffffffffffffffffffffffffffffffffff1673ffffffffffffffffffffffffffffffffffffffff16815260200190815260200160002060000160009054906101000a900460ff16600181111561097357610972610e3d565b5b146109b3576040517f08c379a00000000000000000000000000000000000000000000000000000000081526004016109aa906110ce565b60405180910390fd5b81600060018111156109c8576109c7610e3d565b5b600360008373ffffffffffffffffffffffffffffffffffffffff1673ffffffffffffffffffffffffffffffffffffffff16815260200190815260200160002060000160009054906101000a900460ff166001811115610a2a57610a29610e3d565b5b14610a6a576040517f08c379a0000000000000000000000000000000000000000000000000000000008152600401610a619061113a565b60405180910390fd5b60003411610aad576040517f08c379a0000000000000000000000000000000000000000000000000000000008152600401610aa4906111cc565b60405180910390fd5b60008411610af0576040517f08c379a0000000000000000000000000000000000000000000000000000000008152600401610ae790611238565b60405180910390fd5b60008373ffffffffffffffffffffffffffffffffffffffff1634604051610b1690611289565b60006040518083038185875af1925050503d8060008114610b53576040519150601f19603f3d011682016040523d82523d6000602084013e610b58565b606091505b5050905080610b9c576040517f08c379a0000000000000000000000000000000000000000000000000000000008152600401610b93906112ea565b60405180910390fd5b34600560008781526020019081526020016000206000828254610bbf919061130a565b92505081905550848473ffffffffffffffffffffffffffffffffffffffff163373ffffffffffffffffffffffffffffffffffffffff167f7991b05c7aa4ca460a65d711175c16ab4f1c553ffdfd5c18f240b5b5d803774834604051610c249190610cc0565b60405180910390a460056000868152602001908152602001600020549250505092915050565b60015481565b600080fd5b60028110610c6257600080fd5b50565b600081359050610c7481610c55565b92915050565b600060208284031215610c9057610c8f610c50565b5b6000610c9e84828501610c65565b91505092915050565b6000819050919050565b610cba81610ca7565b82525050565b6000602082019050610cd56000830184610cb1565b92915050565b610ce481610ca7565b8114610cef57600080fd5b50565b600081359050610d0181610cdb565b92915050565b600073ffffffffffffffffffffffffffffffffffffffff82169050919050565b6000610d3282610d07565b9050919050565b610d4281610d27565b8114610d4d57600080fd5b50565b600081359050610d5f81610d39565b92915050565b60008060408385031215610d7c57610d7b610c50565b5b6000610d8a85828601610cf2565b9250506020610d9b85828601610d50565b9150509250929050565b600060208284031215610dbb57610dba610c50565b5b6000610dc984828501610cf2565b91505092915050565b6000610ddd82610d07565b9050919050565b610ded81610dd2565b8114610df857600080fd5b50565b600081359050610e0a81610de4565b92915050565b600060208284031215610e2657610e25610c50565b5b6000610e3484828501610dfb565b91505092915050565b7f4e487b7100000000000000000000000000000000000000000000000000000000600052602160045260246000fd5b60028110610e7d57610e7c610e3d565b5b50565b6000819050610e8e82610e6c565b919050565b6000610e9e82610e80565b9050919050565b610eae81610e93565b82525050565b60008115159050919050565b610ec981610eb4565b82525050565b6000604082019050610ee46000830185610ea5565b610ef16020830184610ec0565b9392505050565b610f0181610dd2565b82525050565b6000602082019050610f1c6000830184610ef8565b92915050565b600082825260208201905092915050565b7f5573657220697320616c726561647920726567697374657265642e0000000000600082015250565b6000610f69601b83610f22565b9150610f7482610f33565b602082019050919050565b60006020820190508181036000830152610f9881610f5c565b9050919050565b7f496e76616c696420757365722074797065000000000000000000000000000000600082015250565b6000610fd5601183610f22565b9150610fe082610f9f565b602082019050919050565b6000602082019050818103600083015261100481610fc8565b9050919050565b7f4e487b7100000000000000000000000000000000000000000000000000000000600052601160045260246000fd5b600061104582610ca7565b91507fffffffffffffffffffffffffffffffffffffffffffffffffffffffffffffffff82036110775761107661100b565b5b600182019050919050565b7f4f6e6c7920446f6e6f722041636365707461626c650000000000000000000000600082015250565b60006110b8601583610f22565b91506110c382611082565b602082019050919050565b600060208201905081810360008301526110e7816110ab565b9050919050565b7f4f6e6c7920446f6e65652041636365707461626c650000000000000000000000600082015250565b6000611124601583610f22565b915061112f826110ee565b602082019050919050565b6000602082019050818103600083015261115381611117565b9050919050565b7f416d6f756e742053686f756c642062652067726561746572207468616e20302060008201527f4554480000000000000000000000000000000000000000000000000000000000602082015250565b60006111b6602383610f22565b91506111c18261115a565b604082019050919050565b600060208201905081810360008301526111e5816111a9565b9050919050565b7f496e76616c696420744964000000000000000000000000000000000000000000600082015250565b6000611222600b83610f22565b915061122d826111ec565b602082019050919050565b6000602082019050818103600083015261125181611215565b9050919050565b600081905092915050565b50565b6000611273600083611258565b915061127e82611263565b600082019050919050565b600061129482611266565b9150819050919050565b7f43616c6c206661696c6564000000000000000000000000000000000000000000600082015250565b60006112d4600b83610f22565b91506112df8261129e565b602082019050919050565b60006020820190508181036000830152611303816112c7565b9050919050565b600061131582610ca7565b915061132083610ca7565b92508282019050808211156113385761133761100b565b5b9291505056fea264697066735822122076b3ba467d93776bdc306c96349d1f5420840476135349cc119af4086ae49d6064736f6c63430008130033",
  "linkReferences": {},
  "deployedLinkReferences": {}
}