{
  "_format": "hh-sol-artifact-1",
  "contractName": "User",
  "sourceName": "contracts/User.sol",
  "abi": [
    {
      "inputs": [],
      "stateMutability": "nonpayable",
      "type": "constructor"
    },
    {
      "anonymous": false,
      "inputs": [
        {
          "indexed": true,
          "internalType": "address",
          "name": "account",
          "type": "address"
        },
        {
          "indexed": true,
          "internalType": "enum User.Type",
          "name": "userType",
          "type": "uint8"
        }
      ],
      "name": "RegisteredUser",
      "type": "event"
    },
    {
      "inputs": [],
      "name": "doneeCount",
      "outputs": [
        {
          "internalType": "uint256",
          "name": "",
          "type": "uint256"
        }
      ],
      "stateMutability": "view",
      "type": "function"
    },
    {
      "inputs": [],
      "name": "donorCount",
      "outputs": [
        {
          "internalType": "uint256",
          "name": "",
          "type": "uint256"
        }
      ],
      "stateMutability": "view",
      "type": "function"
    },
    {
      "inputs": [
        {
          "internalType": "enum User.Type",
          "name": "_userType",
          "type": "uint8"
        }
      ],
      "name": "registerUser",
      "outputs": [],
      "stateMutability": "nonpayable",
      "type": "function"
    },
    {
      "inputs": [],
      "name": "userCount",
      "outputs": [
        {
          "internalType": "uint256",
          "name": "",
          "type": "uint256"
        }
      ],
      "stateMutability": "view",
      "type": "function"
    },
    {
      "inputs": [
        {
          "internalType": "address",
          "name": "",
          "type": "address"
        }
      ],
      "name": "users",
      "outputs": [
        {
          "internalType": "enum User.Type",
          "name": "userType",
          "type": "uint8"
        },
        {
          "internalType": "bool",
          "name": "valid",
          "type": "bool"
        }
      ],
      "stateMutability": "view",
      "type": "function"
    }
  ],
  "bytecode": "0x608060405234801561001057600080fd5b5060008081905550600060018190555060006002819055506107a5806100376000396000f3fe608060405234801561001057600080fd5b50600436106100575760003560e01c806302b8c8cd1461005c57806307973ccf14610078578063a87430ba14610096578063c407670f146100c7578063d96e13dc146100e5575b600080fd5b61007660048036038101906100719190610468565b610103565b005b6100806103ee565b60405161008d91906104ae565b60405180910390f35b6100b060048036038101906100ab9190610527565b6103f4565b6040516100be9291906105e6565b60405180910390f35b6100cf610432565b6040516100dc91906104ae565b60405180910390f35b6100ed610438565b6040516100fa91906104ae565b60405180910390f35b60001515600360003373ffffffffffffffffffffffffffffffffffffffff1673ffffffffffffffffffffffffffffffffffffffff16815260200190815260200160002060000160019054906101000a900460ff16151514610199576040517f08c379a00000000000000000000000000000000000000000000000000000000081526004016101909061066c565b60405180910390fd5b600060018111156101ad576101ac610554565b5b8160018111156101c0576101bf610554565b5b14806101ef57506001808111156101da576101d9610554565b5b8160018111156101ed576101ec610554565b5b145b61022e576040517f08c379a0000000000000000000000000000000000000000000000000000000008152600401610225906106d8565b60405180910390fd5b60008081548092919061024090610727565b91905055506000604051806040016040528083600181111561026557610264610554565b5b815260200160011515815250905080600360003373ffffffffffffffffffffffffffffffffffffffff1673ffffffffffffffffffffffffffffffffffffffff16815260200190815260200160002060008201518160000160006101000a81548160ff021916908360018111156102de576102dd610554565b5b021790555060208201518160000160016101000a81548160ff02191690831515021790555090505081600181111561031957610318610554565b5b3373ffffffffffffffffffffffffffffffffffffffff167f74c84af6c24f9ad9f8ce4f8958227e495adc658383234a4209014b925ad0083260405160405180910390a3600060018111156103705761036f610554565b5b82600181111561038357610382610554565b5b036103a5576001600081548092919061039b90610727565b91905055506103ea565b6001808111156103b8576103b7610554565b5b8260018111156103cb576103ca610554565b5b036103e957600260008154809291906103e390610727565b91905055505b5b5050565b60005481565b60036020528060005260406000206000915090508060000160009054906101000a900460ff16908060000160019054906101000a900460ff16905082565b60025481565b60015481565b600080fd5b6002811061045057600080fd5b50565b60008135905061046281610443565b92915050565b60006020828403121561047e5761047d61043e565b5b600061048c84828501610453565b91505092915050565b6000819050919050565b6104a881610495565b82525050565b60006020820190506104c3600083018461049f565b92915050565b600073ffffffffffffffffffffffffffffffffffffffff82169050919050565b60006104f4826104c9565b9050919050565b610504816104e9565b811461050f57600080fd5b50565b600081359050610521816104fb565b92915050565b60006020828403121561053d5761053c61043e565b5b600061054b84828501610512565b91505092915050565b7f4e487b7100000000000000000000000000000000000000000000000000000000600052602160045260246000fd5b6002811061059457610593610554565b5b50565b60008190506105a582610583565b919050565b60006105b582610597565b9050919050565b6105c5816105aa565b82525050565b60008115159050919050565b6105e0816105cb565b82525050565b60006040820190506105fb60008301856105bc565b61060860208301846105d7565b9392505050565b600082825260208201905092915050565b7f5573657220697320616c726561647920726567697374657265642e0000000000600082015250565b6000610656601b8361060f565b915061066182610620565b602082019050919050565b6000602082019050818103600083015261068581610649565b9050919050565b7f496e76616c696420757365722074797065000000000000000000000000000000600082015250565b60006106c260118361060f565b91506106cd8261068c565b602082019050919050565b600060208201905081810360008301526106f1816106b5565b9050919050565b7f4e487b7100000000000000000000000000000000000000000000000000000000600052601160045260246000fd5b600061073282610495565b91507fffffffffffffffffffffffffffffffffffffffffffffffffffffffffffffffff8203610764576107636106f8565b5b60018201905091905056fea2646970667358221220a1873e34b59ef80ad667ef1a947fca6908083f3e94d8a1a382214ec977d9e9aa64736f6c63430008130033",
  "linkReferences": {},
  "deployedLinkReferences": {}
}